{
  "contractName": "Transactions",
  "abi": [
    {
      "anonymous": false,
      "inputs": [
        {
          "indexed": false,
          "internalType": "string",
          "name": "_Under_contractor",
          "type": "string"
        },
        {
          "indexed": false,
          "internalType": "string",
          "name": "vendor_comp",
          "type": "string"
        },
        {
          "indexed": false,
          "internalType": "string",
          "name": "field",
          "type": "string"
        },
        {
          "indexed": false,
          "internalType": "uint256",
          "name": "value",
          "type": "uint256"
        },
        {
          "indexed": false,
          "internalType": "address payable",
          "name": "vendor_addr",
          "type": "address"
        }
      ],
      "name": "Vendors_under_Contractor",
      "type": "event"
    },
    {
      "anonymous": false,
      "inputs": [
        {
          "indexed": false,
          "internalType": "address payable",
          "name": "_from",
          "type": "address"
        },
        {
          "indexed": false,
          "internalType": "address payable",
          "name": "to",
          "type": "address"
        },
        {
          "indexed": false,
          "internalType": "uint256",
          "name": "val",
          "type": "uint256"
        }
      ],
      "name": "from_contractor",
      "type": "event"
    },
    {
      "anonymous": false,
      "inputs": [
        {
          "indexed": true,
          "internalType": "address",
          "name": "_from",
          "type": "address"
        },
        {
          "indexed": false,
          "internalType": "uint256",
          "name": "_value",
          "type": "uint256"
        }
      ],
      "name": "funds_To_CGG",
      "type": "event"
    },
    {
      "anonymous": false,
      "inputs": [
        {
          "indexed": true,
          "internalType": "address",
          "name": "_from",
          "type": "address"
        },
        {
          "indexed": true,
          "internalType": "address",
          "name": "_to",
          "type": "address"
        },
        {
          "indexed": false,
          "internalType": "uint256",
          "name": "_value",
          "type": "uint256"
        }
      ],
      "name": "funds_To_Contractorr",
      "type": "event"
    },
    {
      "anonymous": false,
      "inputs": [
        {
          "indexed": true,
          "internalType": "address",
          "name": "_from",
          "type": "address"
        },
        {
          "indexed": false,
          "internalType": "uint256",
          "name": "_value",
          "type": "uint256"
        }
      ],
      "name": "funds_To_SGG",
      "type": "event"
    },
    {
      "inputs": [
        {
          "internalType": "address",
          "name": "",
          "type": "address"
        }
      ],
      "name": "Transactions_history",
      "outputs": [
        {
          "internalType": "uint256",
          "name": "id",
          "type": "uint256"
        },
        {
          "internalType": "string",
          "name": "Company_name",
          "type": "string"
        },
        {
          "internalType": "uint256",
          "name": "bid",
          "type": "uint256"
        },
        {
          "internalType": "address payable",
          "name": "contractor_address",
          "type": "address"
        }
      ],
      "stateMutability": "view",
      "type": "function",
      "constant": true
    },
    {
      "inputs": [],
      "name": "_Under_contractor",
      "outputs": [
        {
          "internalType": "string",
          "name": "",
          "type": "string"
        }
      ],
      "stateMutability": "view",
      "type": "function",
      "constant": true
    },
    {
      "inputs": [],
      "name": "state_address",
      "outputs": [
        {
          "internalType": "address payable",
          "name": "",
          "type": "address"
        }
      ],
      "stateMutability": "view",
      "type": "function",
      "constant": true
    },
    {
      "inputs": [
        {
          "internalType": "uint256",
          "name": "_id",
          "type": "uint256"
        },
        {
          "internalType": "string",
          "name": "_name",
          "type": "string"
        },
        {
          "internalType": "uint256",
          "name": "_bid",
          "type": "uint256"
        }
      ],
      "name": "add_Tender",
      "outputs": [],
      "stateMutability": "nonpayable",
      "type": "function"
    },
    {
      "inputs": [],
      "name": "return_address",
      "outputs": [
        {
          "internalType": "address payable",
          "name": "",
          "type": "address"
        }
      ],
      "stateMutability": "view",
      "type": "function",
      "constant": true
    },
    {
      "inputs": [
        {
          "internalType": "address payable",
          "name": "_addr",
          "type": "address"
        },
        {
          "internalType": "uint256",
          "name": "_bid_value",
          "type": "uint256"
        }
      ],
      "name": "request_Funds_to_CG",
      "outputs": [],
      "stateMutability": "payable",
      "type": "function",
      "payable": true
    },
    {
      "inputs": [
        {
          "internalType": "address payable",
          "name": "_addr",
          "type": "address"
        }
      ],
      "name": "funds_To_SG",
      "outputs": [],
      "stateMutability": "payable",
      "type": "function",
      "payable": true
    },
    {
      "inputs": [
        {
          "internalType": "address payable",
          "name": "_add",
          "type": "address"
        },
        {
          "internalType": "uint256",
          "name": "_part_amount",
          "type": "uint256"
        }
      ],
      "name": "funds_To_Contractor",
      "outputs": [],
      "stateMutability": "payable",
      "type": "function",
      "payable": true
    },
    {
      "inputs": [
        {
          "internalType": "string",
          "name": "__Under_contractor",
          "type": "string"
        }
      ],
      "name": "set_contr_4Vend",
      "outputs": [],
      "stateMutability": "nonpayable",
      "type": "function"
    },
    {
      "inputs": [
        {
          "internalType": "string",
          "name": "_cname",
          "type": "string"
        },
        {
          "internalType": "string",
          "name": "_occ",
          "type": "string"
        },
        {
          "internalType": "uint256",
          "name": "_amt",
          "type": "uint256"
        }
      ],
      "name": "add_details",
      "outputs": [],
      "stateMutability": "nonpayable",
      "type": "function"
    },
    {
      "inputs": [
        {
          "internalType": "string",
          "name": "_contr",
          "type": "string"
        }
      ],
      "name": "review_details",
      "outputs": [
        {
          "internalType": "string",
          "name": "",
          "type": "string"
        },
        {
          "internalType": "string",
          "name": "",
          "type": "string"
        },
        {
          "internalType": "uint256",
          "name": "",
          "type": "uint256"
        },
        {
          "internalType": "address payable",
          "name": "",
          "type": "address"
        }
      ],
      "stateMutability": "view",
      "type": "function",
      "constant": true
    },
    {
      "inputs": [
        {
          "internalType": "address payable",
          "name": "_addres",
          "type": "address"
        }
      ],
      "name": "review_details",
      "outputs": [
        {
          "internalType": "uint256",
          "name": "_id",
          "type": "uint256"
        },
        {
          "internalType": "string",
          "name": "_name",
          "type": "string"
        },
        {
          "internalType": "uint256",
          "name": "_bid",
          "type": "uint256"
        },
        {
          "internalType": "address payable",
          "name": "",
          "type": "address"
        }
      ],
      "stateMutability": "view",
      "type": "function",
      "constant": true
    },
    {
      "inputs": [
        {
          "internalType": "address payable",
          "name": "_address_topay",
          "type": "address"
        }
      ],
      "name": "payment_from_Contractor",
      "outputs": [],
      "stateMutability": "payable",
      "type": "function",
      "payable": true
    }
  ],
  "bytecode": "0x6080604052600060015534801561001557600080fd5b50611782806100256000396000f3fe6080604052600436106100c25760003560e01c8063af1988ed1161007f578063c02ae43511610059578063c02ae43514610243578063cc17a3ca1461025f578063df32d5281461028a578063e6eee0e7146102ca576100c2565b8063af1988ed146101be578063b31cd5f3146101da578063b7d9f67214610203576100c2565b806313c5ef94146100c757806330a7e6bc146100e35780634538edd4146100ff57806366feaf871461012a57806374177c24146101535780637f4273dd1461017e575b600080fd5b6100e160048036038101906100dc9190610fed565b6102f3565b005b6100fd60048036038101906100f89190610fc4565b6103aa565b005b34801561010b57600080fd5b5061011461042f565b6040516101219190611357565b60405180910390f35b34801561013657600080fd5b50610151600480360381019061014c9190611029565b6104bd565b005b34801561015f57600080fd5b506101686104d7565b6040516101759190611305565b60405180910390f35b34801561018a57600080fd5b506101a560048036038101906101a09190611029565b610562565b6040516101b59493929190611379565b60405180910390f35b6101d860048036038101906101d39190610fc4565b610735565b005b3480156101e657600080fd5b5061020160048036038101906101fc919061106a565b6107cd565b005b34801561020f57600080fd5b5061022a60048036038101906102259190610f9b565b610908565b60405161023a949392919061144f565b60405180910390f35b61025d60048036038101906102589190610fed565b6109e0565b005b34801561026b57600080fd5b50610274610a9c565b6040516102819190611305565b60405180910390f35b34801561029657600080fd5b506102b160048036038101906102ac9190610fc4565b610ac2565b6040516102c1949392919061144f565b60405180910390f35b3480156102d657600080fd5b506102f160048036038101906102ec91906110e9565b610c8b565b005b806005819055508173ffffffffffffffffffffffffffffffffffffffff166108fc349081150290604051600060405180830381858888f19350505050158015610340573d6000803e3d6000fd5b508173ffffffffffffffffffffffffffffffffffffffff163373ffffffffffffffffffffffffffffffffffffffff167f42fb1ad5255a0e26bf99af87d2c64a73c1164ba9503815f87adf35ef3f80bab53460405161039e9190611434565b60405180910390a35050565b8073ffffffffffffffffffffffffffffffffffffffff166108fc349081150290604051600060405180830381858888f193505050501580156103f0573d6000803e3d6000fd5b507f314fc8f04aa05d4d0fe354f4d1dd7647d5fae92d578b42305f0ce54aabdd6e9a33823460405161042493929190611320565b60405180910390a150565b6007805461043c906115bd565b80601f0160208091040260200160405190810160405280929190818152602001828054610468906115bd565b80156104b55780601f1061048a576101008083540402835291602001916104b5565b820191906000526020600020905b81548152906001019060200180831161049857829003601f168201915b505050505081565b80600790805190602001906104d3929190610e51565b5050565b6000806000600260009054906101000a900473ffffffffffffffffffffffffffffffffffffffff1673ffffffffffffffffffffffffffffffffffffffff1673ffffffffffffffffffffffffffffffffffffffff16815260200190815260200160002060030160009054906101000a900473ffffffffffffffffffffffffffffffffffffffff16905090565b60608060008060068560405161057891906112d7565b908152602001604051809103902060000160068660405161059991906112d7565b90815260200160405180910390206001016006876040516105ba91906112d7565b9081526020016040518091039020600201546006886040516105dc91906112d7565b908152602001604051809103902060030160009054906101000a900473ffffffffffffffffffffffffffffffffffffffff1683805461061a906115bd565b80601f0160208091040260200160405190810160405280929190818152602001828054610646906115bd565b80156106935780601f1061066857610100808354040283529160200191610693565b820191906000526020600020905b81548152906001019060200180831161067657829003601f168201915b505050505093508280546106a6906115bd565b80601f01602080910402602001604051908101604052809291908181526020018280546106d2906115bd565b801561071f5780601f106106f45761010080835404028352916020019161071f565b820191906000526020600020905b81548152906001019060200180831161070257829003601f168201915b5050505050925093509350935093509193509193565b8073ffffffffffffffffffffffffffffffffffffffff166108fc349081150290604051600060405180830381858888f1935050505015801561077b573d6000803e3d6000fd5b503373ffffffffffffffffffffffffffffffffffffffff167fe2e4bae74ed41185b58607eef7c7e3f46496c93cb2859ed8702059c5f7160bbb346040516107c29190611434565b60405180910390a250565b82600660076040516107df91906112ee565b90815260200160405180910390206000019080519060200190610803929190610e51565b50816006600760405161081691906112ee565b9081526020016040518091039020600101908051906020019061083a929190610e51565b50806006600760405161084d91906112ee565b908152602001604051809103902060020181905550336006600760405161087491906112ee565b908152602001604051809103902060030160006101000a81548173ffffffffffffffffffffffffffffffffffffffff021916908373ffffffffffffffffffffffffffffffffffffffff1602179055507f75b9ce0bc7bc5d082ab46611082e9ee4bf73443eadc3995266a97ea553ef77d86007848484336040516108fb9594939291906113cc565b60405180910390a1505050565b6000602052806000526040600020600091509050806000015490806001018054610931906115bd565b80601f016020809104026020016040519081016040528092919081815260200182805461095d906115bd565b80156109aa5780601f1061097f576101008083540402835291602001916109aa565b820191906000526020600020905b81548152906001019060200180831161098d57829003601f168201915b5050505050908060020154908060030160009054906101000a900473ffffffffffffffffffffffffffffffffffffffff16905084565b8060038190555081600460006101000a81548173ffffffffffffffffffffffffffffffffffffffff021916908373ffffffffffffffffffffffffffffffffffffffff160217905550600460009054906101000a900473ffffffffffffffffffffffffffffffffffffffff1673ffffffffffffffffffffffffffffffffffffffff167f7e34faee1e85e5b9f5c9cd5d4e9bb43c86ce7b74cae20ff95f7420b7bd9e4ecd34604051610a909190611434565b60405180910390a25050565b600460009054906101000a900473ffffffffffffffffffffffffffffffffffffffff1681565b600060606000806000808673ffffffffffffffffffffffffffffffffffffffff1673ffffffffffffffffffffffffffffffffffffffff168152602001908152602001600020600001546000808773ffffffffffffffffffffffffffffffffffffffff1673ffffffffffffffffffffffffffffffffffffffff1681526020019081526020016000206001016000808873ffffffffffffffffffffffffffffffffffffffff1673ffffffffffffffffffffffffffffffffffffffff168152602001908152602001600020600201546000808973ffffffffffffffffffffffffffffffffffffffff1673ffffffffffffffffffffffffffffffffffffffff16815260200190815260200160002060030160009054906101000a900473ffffffffffffffffffffffffffffffffffffffff16828054610bfc906115bd565b80601f0160208091040260200160405190810160405280929190818152602001828054610c28906115bd565b8015610c755780601f10610c4a57610100808354040283529160200191610c75565b820191906000526020600020905b815481529060010190602001808311610c5857829003601f168201915b5050505050925093509350935093509193509193565b60016000815480929190610c9e90611620565b91905055506000339050836000808373ffffffffffffffffffffffffffffffffffffffff1673ffffffffffffffffffffffffffffffffffffffff16815260200190815260200160002060000181905550826000808373ffffffffffffffffffffffffffffffffffffffff1673ffffffffffffffffffffffffffffffffffffffff1681526020019081526020016000206001019080519060200190610d43929190610e51565b50816000808373ffffffffffffffffffffffffffffffffffffffff1673ffffffffffffffffffffffffffffffffffffffff16815260200190815260200160002060020181905550806000808373ffffffffffffffffffffffffffffffffffffffff1673ffffffffffffffffffffffffffffffffffffffff16815260200190815260200160002060030160006101000a81548173ffffffffffffffffffffffffffffffffffffffff021916908373ffffffffffffffffffffffffffffffffffffffff16021790555033600260006101000a81548173ffffffffffffffffffffffffffffffffffffffff021916908373ffffffffffffffffffffffffffffffffffffffff16021790555050505050565b828054610e5d906115bd565b90600052602060002090601f016020900481019282610e7f5760008555610ec6565b82601f10610e9857805160ff1916838001178555610ec6565b82800160010185558215610ec6579182015b82811115610ec5578251825591602001919060010190610eaa565b5b509050610ed39190610ed7565b5090565b5b80821115610ef0576000816000905550600101610ed8565b5090565b6000610f07610f02846114c0565b61149b565b905082815260208101848484011115610f1f57600080fd5b610f2a84828561157b565b509392505050565b600081359050610f4181611707565b92915050565b600081359050610f568161171e565b92915050565b600082601f830112610f6d57600080fd5b8135610f7d848260208601610ef4565b91505092915050565b600081359050610f9581611735565b92915050565b600060208284031215610fad57600080fd5b6000610fbb84828501610f32565b91505092915050565b600060208284031215610fd657600080fd5b6000610fe484828501610f47565b91505092915050565b6000806040838503121561100057600080fd5b600061100e85828601610f47565b925050602061101f85828601610f86565b9150509250929050565b60006020828403121561103b57600080fd5b600082013567ffffffffffffffff81111561105557600080fd5b61106184828501610f5c565b91505092915050565b60008060006060848603121561107f57600080fd5b600084013567ffffffffffffffff81111561109957600080fd5b6110a586828701610f5c565b935050602084013567ffffffffffffffff8111156110c257600080fd5b6110ce86828701610f5c565b92505060406110df86828701610f86565b9150509250925092565b6000806000606084860312156110fe57600080fd5b600061110c86828701610f86565b935050602084013567ffffffffffffffff81111561112957600080fd5b61113586828701610f5c565b925050604061114686828701610f86565b9150509250925092565b6111598161153f565b82525050565b600061116a82611506565b6111748185611511565b935061118481856020860161158a565b61118d816116f6565b840191505092915050565b60006111a382611506565b6111ad8185611522565b93506111bd81856020860161158a565b80840191505092915050565b600081546111d6816115bd565b6111e08186611511565b945060018216600081146111fb576001811461120d57611240565b60ff1983168652602086019350611240565b611216856114f1565b60005b8381101561123857815481890152600182019150602081019050611219565b808801955050505b50505092915050565b60008154611256816115bd565b6112608186611522565b9450600182166000811461127b576001811461128c576112bf565b60ff198316865281860193506112bf565b611295856114f1565b60005b838110156112b757815481890152600182019150602081019050611298565b838801955050505b50505092915050565b6112d181611571565b82525050565b60006112e38284611198565b915081905092915050565b60006112fa8284611249565b915081905092915050565b600060208201905061131a6000830184611150565b92915050565b60006060820190506113356000830186611150565b6113426020830185611150565b61134f60408301846112c8565b949350505050565b60006020820190508181036000830152611371818461115f565b905092915050565b60006080820190508181036000830152611393818761115f565b905081810360208301526113a7818661115f565b90506113b660408301856112c8565b6113c36060830184611150565b95945050505050565b600060a08201905081810360008301526113e681886111c9565b905081810360208301526113fa818761115f565b9050818103604083015261140e818661115f565b905061141d60608301856112c8565b61142a6080830184611150565b9695505050505050565b600060208201905061144960008301846112c8565b92915050565b600060808201905061146460008301876112c8565b8181036020830152611476818661115f565b905061148560408301856112c8565b6114926060830184611150565b95945050505050565b60006114a56114b6565b90506114b182826115ef565b919050565b6000604051905090565b600067ffffffffffffffff8211156114db576114da6116c7565b5b6114e4826116f6565b9050602081019050919050565b60008190508160005260206000209050919050565b600081519050919050565b600082825260208201905092915050565b600081905092915050565b600061153882611551565b9050919050565b600061154a82611551565b9050919050565b600073ffffffffffffffffffffffffffffffffffffffff82169050919050565b6000819050919050565b82818337600083830152505050565b60005b838110156115a857808201518184015260208101905061158d565b838111156115b7576000848401525b50505050565b600060028204905060018216806115d557607f821691505b602082108114156115e9576115e8611698565b5b50919050565b6115f8826116f6565b810181811067ffffffffffffffff82111715611617576116166116c7565b5b80604052505050565b600061162b82611571565b91507fffffffffffffffffffffffffffffffffffffffffffffffffffffffffffffffff82141561165e5761165d611669565b5b600182019050919050565b7f4e487b7100000000000000000000000000000000000000000000000000000000600052601160045260246000fd5b7f4e487b7100000000000000000000000000000000000000000000000000000000600052602260045260246000fd5b7f4e487b7100000000000000000000000000000000000000000000000000000000600052604160045260246000fd5b6000601f19601f8301169050919050565b6117108161152d565b811461171b57600080fd5b50565b6117278161153f565b811461173257600080fd5b50565b61173e81611571565b811461174957600080fd5b5056fea2646970667358221220534a233ea5b39b354f6be2dba4163baaac4e3e622a5fdf36ecedd1ce3cf574f564736f6c63430008030033",
  "immutableReferences": {},
  "source": "pragma solidity >=0.6.0 <0.9;\r\n// SPDX-License-Identifier: MIT\r\n    contract Transactions\r\n    {\r\n\r\n        struct Contractor {\r\n            uint  id;\r\n            string Company_name ;\r\n            uint256 bid;\r\n            address payable contractor_address;\r\n\r\n        }\r\n        mapping(address => Contractor) public Transactions_history;\r\n        uint cnt =0;\r\n        function add_Tender(uint _id, string memory _name,uint256 _bid) public\r\n        {\r\n            cnt++;\r\n            address payable _addr = payable (msg.sender);\r\n            Transactions_history[_addr].id=_id;\r\n            Transactions_history[_addr].Company_name=_name;\r\n            Transactions_history[_addr].bid=_bid;\r\n            Transactions_history[_addr].contractor_address=_addr;\r\n            cont_addr = payable (msg.sender);\r\n\r\n        }\r\n        address payable cont_addr;\r\n        function review_details (address payable _addres)\r\n        public view returns(uint _id, string memory _name,uint256 _bid,address payable) {  \r\n           \r\n        return(Transactions_history[_addres].id, Transactions_history[_addres].Company_name,\r\n                Transactions_history[_addres].bid,Transactions_history[_addres].contractor_address);  \r\n    }\r\n        function return_address()  public view returns(address payable  ){\r\n            return Transactions_history[cont_addr].contractor_address;\r\n        }\r\n\r\n        uint  bid_value;\r\n        address payable public state_address;\r\n\r\n        // function contractor_select() public\r\n        // {\r\n\r\n        // }\r\n        event funds_To_CGG(address indexed _from, uint _value);\r\n        function request_Funds_to_CG(address payable _addr,uint _bid_value) payable public\r\n        {\r\n            bid_value = _bid_value;\r\n            state_address = _addr;\r\n            emit funds_To_CGG(state_address, msg.value);\r\n\r\n        }\r\n         event funds_To_SGG(address indexed _from, uint _value);\r\n        function funds_To_SG(address payable _addr) payable external\r\n        {\r\n            _addr.transfer(msg.value);\r\n            emit funds_To_SGG(msg.sender, msg.value);\r\n        }\r\n\r\n\r\n        uint part_amount;\r\n\r\n        event funds_To_Contractorr(address indexed _from,address indexed _to, uint _value); //event\r\n        function funds_To_Contractor(address payable _add,uint _part_amount) payable external\r\n        {\r\n            part_amount = _part_amount;\r\n            \r\n           // address payable contractor_address_topay = return_address() ;\r\n            _add.transfer(msg.value);\r\n            emit funds_To_Contractorr(msg.sender,_add, msg.value);\r\n\r\n        }\r\nevent Vendors_under_Contractor(string _Under_contractor,string vendor_comp,string field,uint256 value,address payable vendor_addr);\r\n    struct Under_contractor {\r\n       \r\n            string Company_name ;\r\n            string occupation ;\r\n            uint256 amount;\r\n            address payable occ_address;\r\n       \r\n        }\r\n     mapping(string =>  Under_contractor) Under_Contractor_transactions;\r\n     string public _Under_contractor;\r\n     function set_contr_4Vend(string memory __Under_contractor)  public{\r\n         _Under_contractor = __Under_contractor;\r\n     }\r\n     \r\n    function add_details(string memory _cname,string memory _occ,uint256 _amt) public{\r\n       \r\n        Under_Contractor_transactions[_Under_contractor].Company_name =_cname;\r\n        Under_Contractor_transactions[_Under_contractor].occupation=_occ;\r\n        Under_Contractor_transactions[_Under_contractor].amount =_amt;\r\n        Under_Contractor_transactions[_Under_contractor].occ_address = payable (msg.sender);\r\n        emit Vendors_under_Contractor(_Under_contractor,_cname,_occ,_amt,payable (msg.sender));\r\n    }\r\n   \r\n    function review_details (string memory _contr)\r\n     public view returns(string memory, string memory, uint,address payable) {  \r\n           \r\n        return(Under_Contractor_transactions[_contr].Company_name, Under_Contractor_transactions[_contr].occupation,\r\n                Under_Contractor_transactions[_contr].amount,Under_Contractor_transactions[_contr].occ_address);  \r\n    }\r\n   \r\n    //  function transf_from_cont() payable external{\r\n    //      Under_Contractor_transactions[sr_num].occ_address.trasfer(2 ether);\r\n         \r\n    //  }\r\n    event from_contractor(address payable _from,address payable to,uint val);\r\n     function payment_from_Contractor(address payable _address_topay) payable public{\r\n         _address_topay.transfer(msg.value);\r\n         emit from_contractor( payable(msg.sender),_address_topay,msg.value);\r\n     }\r\n   \r\n       \r\n    }",
  "sourcePath": "D:/GitHub/Government_Fund_Transfer_BlockChain_project/SEM6_Proj/contracts/Transactions.sol",
  "compiler": {
    "name": "solc",
    "version": "0.8.3+commit.8d00100c.Emscripten.clang"
  },
  "schemaVersion": "3.4.0",
  "updatedAt": "2021-04-28T21:33:53.875Z",
  "networkType": "ethereum",
  "devdoc": {
    "kind": "dev",
    "methods": {},
    "version": 1
  },
  "userdoc": {
    "kind": "user",
    "methods": {},
    "version": 1
  }
}